:020000041000EA
:1000000000B5324B212058609868022188439860DF
:10001000D860186158612E4B002199600221596106
:100020000121F02299502B49196001219960352056
:1000300000F044F80222904214D00621196600F024
:1000400034F8196E01211966002018661A6600F04E
:100050002CF8196E196E196E052000F02FF8012189
:100060000842F9D1002199601B49196000215960AB
:100070001A491B48016001219960EB211966A021F2
:10008000196600F012F800219960164914480160C1
:100090000121996001BC002800D000471248134993
:1000A000086003C880F30888084703B5996A0420EC
:1000B0000142FBD001200142F8D103BD02B5186610
:1000C0001866FFF7F2FF186E186E02BD00000240BE
:1000D000000000180000070000035F00212200005C
:1000E000F4000018222000A00001001008ED00E03C
:1000F00000000000000000000000000074B24E7A12
:1001000000200420F7010010C3010010C5010010F9
:10011000C1010010C1010010C1010010C101001097
:10012000C1010010C1010010C1010010C701001081
:10013000C1010010C101001055ED0210CB010010EB
:10014000CD010010CD010010CD010010CD01001037
:10015000CD010010CD010010CD010010CD01001027
:10016000CD010010CD010010CD010010CD01001017
:10017000CD010010CD010010CD010010CD01001007
:10018000CD010010CD010010CD010010CD010010F7
:10019000CD010010CD010010CD010010CD010010E7
:1001A000CD010010CD010010CD010010CD010010D7
:1001B000CD010010CD010010CD010010CD010010C7
:1001C00000BE00BE00BE00BE00BE00BEEFF3058054
:1001D000103800BEF2EB88717C030510E4030510B3
:1001E0003802001090A31AE71E481F49086006C88D
:1001F00081F3088810471D480068002801D019487D
:10020000F3E70DA40ECC002902D000F012F8F9E7B4
:100210001749184A002000E001C19142FCD116495B
:100220008847164988471649884700BEFDE701C937
:1002300001C29A42FBD37047E4030510C0000020BE
:10024000DC1200200016051000000420000004202D
:10025000001605100010042000100420000000000B
:10026000704700000000000008ED00E0000000D032
:10027000E01200204C28002061A6031039E702108C
:1002800059A60310F8B5C0460448054B10B5834283
:1002900003D0044B002B00D0984710BDDC12002087
:1002A000DC1200200000000006480749091A8B10E4
:1002B000C90FC91810B5491003D0044B002B00D04A
:1002C000984710BDDC120020DC1200200000000066
:1002D00010B5074C2378002B09D1FFF7D5FF054B4C
:1002E000002B02D0044800E000BF0123237010BDA2
:1002F000701400200000000010CB0310054B10B557
:10030000002B03D00449054800E000BFFFF7CCFFF5
:1003100010BDC046000000007414002010CB031074
:10032000030010B51000540C520892B2002904D0FA
:10033000C00702D40C481AF00BFC944206D19C4230
:1003400010D0220009490A4819F034FC9C4204D913
:1003500008490748E21A19F02DFC9A4202D20649D0
:100360000348F1E710BDC04610CB031038CB031093
:10037000C431041071CB0310A3CB0310F0B50025DA
:100380002F0087B00C9C0D9E029004910392059360
:100390000195059B9D4206D1019B029A934238D25A
:1003A00020481AF0D5FB029B9D4211D263889B0521
:1003B000F6D4019B049A01330193AB00D058FF227D
:1003C00063881340012B1ED10EF020FD307013E026
:1003D000022321880022C900039819430AF072F809
:1003E00000280DD16388DB0504D522880E490F480B
:1003F00019F0E0FB63683360013508340436C8E760
:1004000040680137DBE7022B01D10EF0B7FB30600B
:10041000F2E7039B1B68DB08BB4201D90448C0E735
:1004200007B0F0BDE9CB0310D2CB0310C4310410E8
:100430000ACC031070B515001E00040086B08200BF
:10044000AA1803A80AF012F80B9B290001930A9B33
:100450002000009303AA3300FFF790FF06B070BDA1
:1004600010B501481AF096FB28CC031010B5040013
:100470000161880009F0B4FF606110BD10B504008F
:10048000002902D0C06809F0DFFF606909F0DCFFD5
:1004900010BD70B504000D0001290BDC01210269BB
:1004A00049424069920039F013F9002325706370C6
:1004B000636070BD406809F093FF6368E060A3600B
:1004C000F3E730B5030044780020844208D11D785A
:1004D00020005A68022D01D1D86880188918596007
:1004E00030BD002343700378012B03D84268436971
:1004F0008900CA50704742684B1E9B1849421940F8
:100500004160704770B50C001500FFF7DAFF041961
:10051000002803D170BD05702D0A0130A042FAD128
:10052000F8E710B50C000221FFF7CBFF002802D03E
:100530000470240A447010BDF8B50500012906DCDA
:1005400000290ADA0123023999430C0003E08B1ECB
:100550000024012BF6D8FE2601E00024F226B52166
:10056000090228003143FFF7DCFF271E07D1AE61E7
:10057000EC61F8BD28000649FFF7D3FF7F3F7F2FCE
:10058000F8D8044928003943FFF7CBFFEFE7C0460E
:10059000FFB0000080B0000070B5C5690400002DF8
:1005A00007D07F2D0DD8B021090220002943FFF785
:1005B000B8FFBD21A369090220001943FFF7B1FF6D
:1005C00070BD20000249FFF7ACFF7F3DE9E7C04660
:1005D0007FB00000F7B50B02FF270E000193140057
:1005E00013120A0280213B4013438901194305007D
:1005F000FFF797FF8021F300334389002800194358
:10060000FFF78FFFC021019B3C401C43890128005C
:100610002143FFF786FFF7BD70B50D0004211400DC
:10062000FFF74FFF002805D0057084702D0A240ABB
:100630004570C47070BD10B5DB0011431943FFF75E
:1006400070FF10BD10B5072A09D8D20007290BD8B2
:100650000A438C21C9011143FFF763FF10BD083A1B
:10066000D30040221A43F1E7083911438022EFE713
:10067000F7B515000A0006000C002A43072A11D816
:100680001F00089A9740FF2F0DD8A94202D02A00D8
:10069000FFF7D8FFC02124023C43890121433000E9
:1006A000FFF73FFFF7BDCA000192FF2B18D8A94200
:1006B00022D00A028021134389011943FFF731FF39
:1006C000089B300099012143E3001943FFF729FFFC
:1006D000C021AD01E3001D43254349012943DEE765
:1006E000A94209D03A00FFF775FF4823C0216343B0
:1006F000490123431943D2E7072501236540B4216B
:10070000AB400902194330000093FFF70AFF2900AC
:100710003A003000FFF75EFFC021019BAD01254389
:100720001D43490129433000FFF7FBFEBC21009B1C
:100730000902DFE74369890070B5CC58E021050064
:1007400043680902E41A043C23055B0D1943FFF7D3
:10075000E8FE2B780120022B08D180231B019C424C
:1007600004D3E40AE402E0184342584170BD70B576
:100770000500002083421BD1FF266B699200D458EC
:100780006B680902E41A043C631033400B43D02128
:10079000090228001943FFF7C4FE2B780120022B21
:1007A00006D1B44204D9B4430134FF3460426041FD
:1007B00070BD4369F822890070B5CC58F02105005E
:1007C00043681202E41A043C63109BB21A436302AA
:1007D0005B0D09021943FFF71FFF2B780120022B45
:1007E00008D18023DB039C4204D3A40DA405E018A8
:1007F0004342584170BD0000F8B5476804000E0040
:100800001500BB0703D5BF210902FFF78AFE90211F
:100810003602C90131432000FFF783FE200006495C
:10082000FFF77FFEA9B22000FFF77BFE2000290C16
:10083000FFF777FE3800F8BD01E00000F7B50600CD
:100840000C001700072909D8FF2A07D80C028021BD
:10085000144389012143FFF764FEF7BDFB17FD1820
:100860005D40280034F022FA0023019000939F425B
:1008700003D0280034F020FA0090009A019B94469F
:100880006344172B1AD9154180212302EDB21D4371
:10089000890130002943FFF744FE009BE10021431A
:1008A0009B0130001943FFF73CFE002FD5DA2300EF
:1008B000220030000B49FFF7BEFECEE780235B022B
:1008C0009D4205DA2A0021003000FFF783FEECE7A5
:1008D000002F00DA6D422A0021003000FFF78CFF64
:1008E000BBE7C0464042000010B50378012B04D995
:1008F000FF2902D905481AF04DF9C9B212020A437C
:10090000902109021143FFF70CFE10BD66CC0310C5
:1009100010B50378012B04D9FF2A02D905481AF033
:1009200039F99823D2B2090211431B021943FFF788
:10093000F8FD10BD66CC0310A82310B5D2B2090291
:1009400011431B021943FFF7ECFD10BD43699200F0
:10095000D358426870B59B1A01221A430C3A0C0016
:100960000500FFF737FEB22128002300220009020C
:10097000FFF761FE802223011340793A14400349B6
:10098000234328001943FFF7CCFD70BD78440000D5
:1009900037B50D000400114307290CD81F2B0AD8C6
:1009A000D021D2002A439B011A43C90111432000E0
:1009B000FFF7B7FD37BD02211F3B00912000290042
:1009C000FFF756FE0249EB002B431943EFE7C04601
:1009D000C06F00004369890010B5CC584168611AA6
:1009E0000439631C0FD0CB1C0DDA0D4ACB0ADB0295
:1009F00093420CD0BF210902FFF793FD01340DD0C3
:100A000008481AF0C7F880231B019942EDD2090566
:100A10004B0DE02109021943FFF783FD10BDC046CD
:100A200000F8FFFF88CC0310436970B515009200F1
:100A3000D25843680400D31A043B0902013211D092
:100A4000DA1C0FDAFF221E000D489643864209D1B8
:100A50005B1013400B43D021090220001943FFF71C
:100A600060FD70BD80235B004B40D0210902200057
:100A70001943FFF756FD29002000FFF7ABFFF0E711
:100A800000FFFFFF043A52100902D2B20A43D021FC
:100A900010B509021143FFF744FD10BD04390B05E1
:100AA000E02110B55B0D09021943FFF73AFD10BDB7
:100AB00070B514000B00072221000500FFF768FF46
:100AC0008F21E400C90128002143FFF72AFD70BDF2
:100AD00073B50B0069464C1D21007F261500013CB3
:100AE00035402570D209F9D1091B9847002809D053
:100AF00080260100230001AD76421A78AB4202D174
:100B00001B1BC25473BD32430A7001330131F4E739
:100B1000030030B502687F2400201178C0010D0069
:100B200049B22540013228430029F6DB1A6030BD66
:100B300007B5019001A8FFF7EBFF0EBD0378013068
:100B40007F2BFBD870470000F0B593B00A93036881
:100B50000992049383890700089343680C005A1C88
:100B6000426003221B7804201A40009200220121D7
:100B7000160084460292019278685BB2451C002BF5
:100B80001DDB062200233F25944607930B937A68CA
:100B90000120511C7960127811000140994007989A
:100BA00008430790604658435110294081400B98F4
:100BB00052B208430B90002A1BDA0133E7E77D604D
:100BC0000378009D98110840904006436046184005
:100BD00090400543D810084090400095019D054382
:100BE0001800084090400195029D0132054302958E
:100BF000C2E70021BB68F981059304330393089B86
:100C000003989B001A00069338F062FD009A089B37
:100C10009B1A019A0D939D1A013D039BAD005D192E
:100C20000423009A3340A24200D370E0002B04D189
:100C300023009B499B4818F0BDFF2B1F0C93009B82
:100C400099000A9B5918009BE01A15F0AFFC009B15
:100C500028600C9D0A9A059906989B0009189B1814
:100C60009A4200D080E00823099A33400E931A4339
:100C70000223002A00D1F7E032001A400F9200222E
:100C80000C921E4204D009980FF074FD0C9028605D
:100C90000A9BA4001C1900230A930A9B099A9342F9
:100CA00066D10D9B029A9D00039B049903325B1948
:100CB000920088181900029C002C00D099E003993A
:100CC0000C3A8C469B18069A62449A4200D999E0E5
:100CD0007868FFF733FF0026009B1190B34200D0E5
:100CE0009AE0059B5D19019BA34200D098E00B9B05
:100CF0007D68ED182E00079BEB180093009BB34214
:100D000000D0BFE0079BED187D6013B0F0BD002B55
:100D100002D0654B043D6B600823099A33401343AE
:100D200017D1009B029A9A1AA24200D980E7029B2F
:100D3000009A1B199B1A049A9B00D3180699059ACE
:100D40000C93501822000C9B04330C93009B93428D
:100D500001D123007EE70C9BD9688C466346910045
:100D6000494243500132EEE701CA0439486077E74F
:100D70007868FFF7E3FE002625681190009B019A32
:100D80009B18B34205D80F9B002B26D14749EA0890
:100D900017E011A8FFF7BCFE0222049B40005B682D
:100DA0009B68C35ADB0013439D4214D1089B013B4F
:100DB0009B1B9340039AD3181A68002A04D03C491D
:100DC000EA08384818F0F6FE62681A600A9B083490
:100DD00001330A9361E70136D0E70C9B0122181D0D
:100DE000290009F06FFB4368002BE8D1636843607A
:100DF000ECE70E68002E01D106680E60013C04315C
:100E0000043859E70433191F0968002900D05CE74A
:100E1000D21A28499210D4E7FFF790FE01365BE71B
:100E200011A8FFF775FE049B2A685B6840009B6869
:100E3000C65A002A11D10E9B002B11D00223F100BB
:100E40001943029B049804339B001858043009F09E
:100E500039FB002804D043682B600134043D42E78D
:100E6000320015490F48ADE7019A002A02D0134815
:100E700019F06EFE1E4200D139E701980FF07AFC9E
:100E8000286034E7089B5C1E33780136E41A039B24
:100E9000A4001C1920680EF039FE20602EE7C04621
:100EA00038CB0310C4310410BC420410CDCC031065
:100EB0009ECC0310EECC031020CD031050CD0310B8
:100EC00010B50468E4684460040010348460FFF7DF
:100ED0003BFE10BD70B50568EC68AD682468002C59
:100EE00001D0A40065590400103445608460FFF708
:100EF0002BFE70BD70B540283AD00FD80225A8430C
:100F00003C280BD1012462291AD8482909D823008A
:100F10002000422928D02800482925D0344819F03B
:100F200043FC0B002000493BDBB29840314B184298
:100F300051D1622952D05129F0D12300082013E069
:100F40006439C9B20D29E9D823008B4019009223D6
:100F50005B0019423FD1133BFF3B194238D1264D6C
:100F6000230008202942D9D0002A00D0136070BD88
:100F7000622919D8482908D842292FD0482930D0C9
:100F8000012318009942EFD0C8E7012308001C0094
:100F90004938C0B284401748044226D162291ED085
:100FA0005129BBD108231AE06439C9B20D29B5D83B
:100FB00001238B40190092235B00194213D10E4B81
:100FC0001942EFD10223122418002142CCD1A5E707
:100FD00023002800C8E723000420C5E701231800E8
:100FE000C2E70223FBE70423F6E70423F7E7C04642
:100FF00077CD0310C90400000120000010B551286E
:1010000012D8412803D8012823D000231DE04238FC
:101010000F28FAD83BF01CFD1DF9F9F9F9F9222542
:10102000F9F925F9F94447316238C3B20F2BECD8EE
:101030000F28EAD83BF00CFD08E92DE928E90F3725
:10104000E9E937E9E9E9E91A8B5601205B00184321
:101050000BE08B5CF9E75200535EF6E75200535AFF
:10106000F3E79200505811F071F810BDD2008A18C1
:101070001068516810F0D4FFF7E7D20089180868AB
:10108000496810F0E8FFF0E7920050580FF0FEFFBB
:10109000EBE7D20089180868496834F063F9F5E78E
:1010A00092005058E1E79200505810F0C8FFDCE77A
:1010B000F7B507000C000126002A02D1421E9B183A
:1010C000023E00200021002C06D0002200259A5666
:1010D000D40F00216042A941002211E0040E0094C7
:1010E0000C020194040225001C780132A4462C0055
:1010F00065462C432000009D019C9B192543290037
:10110000BA42EBD103B0F0BDF0B585B0019203AAAD
:1011100004000D001F001E68FFF7ECFE402C09D1F3
:10112000039B019A043CB61A5A1EB6185B421E4035
:10113000019B9E195A2133183E3C3B60A9428941CC
:1011400063425C4149423300E2B2FFF7B1FF020063
:1011500006000F004F2D03D0532D03D113F042FC96
:1011600005B0F0BD652D22D1810583B25004890DF3
:10117000FF22C00E1F2802D0021E09D07032D80BE9
:10118000C007D2051043490308430FF07FFFE7E78C
:101190000029F4D080257024ED004800220081B29F
:1011A000013C2842F9D01748091889B2E7E7662DB3
:1011B000EBD0642D02D134F0D5F8E6E75A2D13D9DF
:1011C00080220023D20592197B4130001100002BB0
:1011D00006D180231B06994202D210F030FFBFE7F0
:1011E000390010F01DFFBBE7002906D18023DB0585
:1011F000984202D210F0AAFFB2E7390010F02BFF9C
:10120000AEE7C04600FCFFFF13B5040001931000D9
:10121000002904D1220001A938F060FA13BD01AB06
:101220001B191419A042F9D0013B19780170013043
:10123000F8E70000F0B589B01F000E9B140005AA66
:101240001D680E000290FFF755FE029B0190402B97
:1012500008D1059BED1B5A1EAD185B421D403C2377
:101260007D190293019B0E9AEB181360029B3E3B83
:1012700003935F425F41FFB2652E1AD012D84F2E02
:1012800043D0642E52D0A30700D06DE0414B2268BA
:101290009A4269D12B0039002000019A10F06AFEB1
:1012A00009B0F0BD662EEED120000DF0BDFC0400AB
:1012B0002BE020000DF0B8FC4402A40DC30400D5BF
:1012C0000134C10DC9B21F23FF2918D00023994250
:1012D00015D00B00703B22D50B3325DB8022702309
:1012E000D20022435B1A92B21A410121130094B238
:1012F000CC400B400A4202D06418A4B20023C00FB5
:10130000C00304439B021C43A4B20198042800D9E3
:10131000042023002A003900FFF776FFC0E73F2BA7
:10132000EDDD1F230024EAE70024E7E720000DF0AD
:101330007BFC38F0FBF81024BB00069007911B19CA
:1013400004AA9B18083B2A001B6839000420FFF7F9
:101350005BFF039B04355A1E93419B001B1904AA93
:101360009B18083B1C68D0E720000DF007FC019B90
:101370000400042BC9D90021884200DAFF3128007B
:10138000019A38F0A5F9029B3E2BBED1019B043B8C
:10139000ED18BAE7B837041070B50C00712807D8FB
:1013A000612806D801281DD04238C1B20F290DD9B5
:1013B00070BD62380F28FBD83BF04AFB14FA25FABF
:1013C0001FFA162DFAFA2DFAFAFAFA190F28EFD8A1
:1013D0003BF03EFB08EEEEEEEEEE0A21EEEE21EEE5
:1013E000EEEE210DA354E3E752001353E0E7D200E1
:1013F000A2181360DB175360DAE71800950038F085
:101400002BF86051D4E7D20018008C1833F062FF3B
:1014100020606160CCE792001351C9E7F7B5060080
:101420000F0014001D00642821D0662818D04F2812
:1014300027D003232A001A4001921D4224D1174BC2
:101440002A689A4220D10100019A4020FFF752FDFC
:1014500044430200019928003B1910F08BFD05E080
:10146000940018000C190DF0DFFB2060F7BDD400CC
:1014700018000C190DF0D8FB38F058F820606160A6
:10148000F4E794006350F1E728000DF077FB2200A9
:10149000030039003000FFF77FFFE7E7B83704109B
:1014A00073B50C0001A9206813F0F0FD0500606819
:1014B00013F06CFD29000023019A08F061FF05007C
:1014C000A06813F063FD512808D00D4B984214D04A
:1014D0000226502803D00B4819F066F901260A4964
:1014E00008200DF082FA00230400310028001A00C1
:1014F00018F06AFC6060200076BD0026EFE7C04669
:101500006703000084CD031034180410F0B587B0D1
:101510000192D02212061268344B9200D3581A69F5
:10152000DD68944601281BD94C68062C15D0A2070B
:1015300010D12F4A266896420CD12600022811D0DD
:101540008A68062A0ED0900704D129481768160029
:10155000874207D0002019F0FBFA2E001400EDE7B7
:101560002E00140003220F68174222D1214A396845
:1015700091421ED162460595049202A81C61DE606C
:101580001D490DF0C3F903237868184208D1036898
:101590001A4A934202D01A4A934201D143685C60CE
:1015A00018F00AFC040001200DF0BEF9200007B07D
:1015B000F0BD019B002B0DD1380013F0E7FC08F0C3
:1015C000ECFE0123019322003300019918F0FCFB8B
:1015D0000400EBE702A9052238000DF019FD0023F5
:1015E000039A0299DF2008F0CBFEECE7AC1A00204A
:1015F000B8300410341804104D980110FC35041054
:10160000DC35041010B50222FFF780FF10BD10B5C5
:101610000122FFF77BFF10BD10B50022FFF776FF18
:1016200010BD70B506000D0000246B68A34200D801
:1016300070BDAB68E200D158002904D0042902D063
:10164000300010F0A3FF0134EFE70000F0B587B0E1
:10165000002806D1544955480AF07CFD062007B001
:10166000F0BD0C68524B9C4257D10021080011F08C
:1016700086F950490390FFF7D4FF4F490398FFF7CD
:10168000D0FF039F4D4E3578002D14D14C4A03A94D
:10169000012011F06DF8039805AA04A911F086F94C
:1016A000049B03339B080193019B404EAB4211D135
:1016B00030004449D0E730003BF09EF8C11E0400E2
:1016C000300013F0FDF801340100380010F05EFF27
:1016D0003619D8E72F00059BBA00D05813F06CFCE0
:1016E000010030000AF036FD019BFF18049B9F4269
:1016F0000DD212231C1A002C07DD30003249013CA8
:101700000AF028FD002CF8D1E5E71234F3E73000A9
:101710002E490AF01FFD0135C6E720000DF072F9D1
:101720000600224D2A4928000AF014FD002120005D
:101730000DF09AF92800F28826490BF08BF8264B19
:101740009E4224D100266468043463689E4200D31C
:1017500084E7A368F2009B181F68002F15D05B6810
:101760001E49280001930AF0F5FC002138000DF015
:101770007BF91B4928000AF0EDFC002101980DF0CF
:1017800073F9280011490AF0E5FC0136DDE7154B35
:101790009E4200D03400E37C002B00D15EE703338F
:1017A0009B00E418CEE7C046448E041000290410C4
:1017B0003A170000B03904101C3904105CAD041055
:1017C0002031041095CD0310BE0904105F0A0410E7
:1017D000B9CD0310C1CD0310443A0410BD09041063
:1017E000D1CD03108C430410022210B58168034848
:1017F000C900114308F066FE10BDC0462C1F002032
:1018000010B51BF0D2FA0849082204003AF01EFE77
:1018100001002000002904D10A00083007F0D4FBA1
:1018200010BD23F05FF9FBE7D6CD031010B504001F
:10183000FFF7E6FF02280CD061686D222000023914
:101840001BF01EFB2000FFF7DBFF0238434258412C
:10185000400010BD10B50400FFF7D2FF012806D0EC
:10186000200003491BF000FB2000FFF7DFFF10BD45
:101870008C120410F0B5D026360633682E4D9B002E
:101880005B5987B000AF0400B9601869BA217A606B
:101890000EF058FF3368F8609B005B59002218690E
:1018A0002649043008F00EFE14230500F918F868E4
:1018B00013F0ECFB6A1E954101007B69641BC318A1
:1018C000002C05D18B420BD11D491E4818F068F938
:1018D0009942F7D2013B1A782E2AF9D1013CEFE761
:1018E0006A465E1A7B681B68F418FB60631C3B60E9
:1018F0000733DB08DB00D31A9D466D463200280013
:1019000037F0ECFEFB68002B09D02E23AB55BB68EB
:1019100001361968FA68A81937F0E0FE3C68210022
:10192000280017F0BFFB17F0A0FCBD46BB6818608D
:101930007B681C6007B0F0BDAC1A0020720E00007E
:10194000DFCD03105033041030B5D3000D00022258
:10195000CC2185B01A43FF31040018F087FBD02258
:10196000120612680C4B9200D35861681A696846D7
:101970000292DA6819610392D96008490CF0C6FF37
:1019800000222100280003F075FF18F015FA01204D
:101990000CF0CAFF05B030BDAC1A00204D98011004
:1019A000F0B5050085B008000F001BF0FEF9082215
:1019B000224904003AF04AFD002819D126000836D1
:1019C0006A46300001A907F0FFFA019B022B0FD1F4
:1019D000009C2B002200083303CA03C3300017F019
:1019E00029FC02002800A168FFF7AEFF05B0F0BD9A
:1019F000200017F01FFC7B680600E418033C2378E6
:101A00006D2B07D102A9029517F0BEFA3200039997
:101A10000298E9E708F0C1FC0222CC210400036827
:101A2000FF31DB0028001A4318F020FB6A6801210F
:101A30001300200018F0C8F9D8E7C046D6CD03102F
:101A4000F0B50300B3B00868032B0AD9CA68039243
:101A5000042B25D00B695C10002B05DA002018F050
:101A6000A3FE06230024039305A913F00FFB0690A1
:101A7000002C04D0200005AA06A9FFF7FBFE059B59
:101A8000002BEBD0002701263D000297059BB342B7
:101A900008D2039B062B00D00295029833B0F0BD0C
:101AA0000024E1E7069CB34202D0A35D2E2B23D194
:101AB0003100200017F0F6FAF11B0190E01917F041
:101AC000F1FA5A4B009008AA186807A90DF000F91E
:101AD000079B002B12D0019B0022D90002235448FF
:101AE000194308F0EFFC002808D04468029B002B43
:101AF00000D102942500771C0136C7E7802112AA85
:101B00000EA81BF0F8F8002D3BD12900009811F029
:101B10001FF9041EEAD1454B0AAA186809A90DF05D
:101B2000D7F82C00099B9C420AD30121009811F0A0
:101B30000FF9041EDAD13F493F48019A18F03AF8EC
:101B400000230A9A0F93A30098580BA913F09EFA4A
:101B50000B9A0100002A06D00EA81BF08DF82F2149
:101B60000EA81BF038F9009817F07FFB01000EA8B3
:101B70001BF07AF90EA8FFF76DFE071E20D1013485
:101B8000D0E7E72128000BAA490017F087FF0B9840
:101B90000028D0D013F010FA01000EA81BF064F951
:101BA0002F210EA81BF017F9009817F05EFB01001B
:101BB0000EA81BF059F90EA8FFF74CFE071EBAD06D
:101BC000019811F0A3F8019B04001C490BA80D9388
:101BD0000CF09CFE012F23D10F99109812F070FE8B
:101BE000E72102004900200018F040FA0EA814492D
:101BF0000F9F1BF039F90EA8FFF718FE022803D13A
:101C000020000EA9FFF7CCFE0F97002D04D0220074
:101C10002800009918F02AFA00200CF085FE65E7EC
:101C200020000EA9FFF7BCFEEFE7C046841F00208E
:101C30002C1F0020FDCD031050330410E9170010B5
:101C400014110410036A1B8B012B02D0C3685918AE
:101C5000C160704710B50400836A406A9B6F984763
:101C6000238B226A01339BB22383918C994200D249
:101C7000938410BD10B50400038B013B0383836A7A
:101C8000406A0833DB6F984701212000FFF7DAFF35
:101C900010BDF0B589B004000D0005920693002B2D
:101CA00003D00823CA8A1343CB823022059BEB83DF
:101CB000236AD98A0A43DA821B78002B44D1A36AAB
:101CC0002900B4331E68059A069B606AB04709B0C4
:101CD000F0BDD26AF300D118D35C0791053B012B0C
:101CE0001FD8002318E0049BEA6ADB00D018D35CFD
:101CF000062B0FD1079B5968436899420AD1079B6D
:101D0000606A5A88A36A1B691F000023B847039BB7
:101D100001330393049B013304932B8D049A934264
:101D2000E1DC0136226A138DB342D2DC039AA36A46
:101D3000606A002AC3D0069AB83300921C68290052
:101D4000059B039AA047C2E700260396EAE710B571
:101D50000400836A002188331B68406A9847A36A9D
:101D6000606A0F211B6B9847A36A606ACC331B68BB
:101D70000121984703212000FFF764FF10BD70B5D3
:101D80000400836A00225B6C406A9847A36A606A19
:101D9000C0331D6800231A001900A8472000FFF770
:101DA000D6FF70BD10B5836A896800221B6D406A3A
:101DB0000909984710BD10B5836A8968DB6B406AD2
:101DC000984710BD10B50400080011001A0019F062
:101DD00053F8236A436000238360E369002B01D139
:101DE000E06110BD1A009B68002BFBD19060F8E702
:101DF000F0B58BB005000C0000AF002902D1012125
:101E0000116018E0032319401C421CD16368F9617A
:101E1000DBB2682B07D1E3681B091360A4680123B8
:101E2000002CECD0FB610F232340022B0DD1FB696A
:101E30002109002BE4D0AB6A0022DB6A686A98476C
:101E4000BD460BB0F0BD0023ECE7FB69002B02D1CF
:101E5000A3681B091360260063681B0AFB60013B33
:101E60007B61FB689B001B197B60B068043600092E
:101E700017F0F2F97B691B187B617B689E42F4D1F5
:101E80006A467B690733DB08DB00D31A9D46BB60DB
:101E90003B610023BB61BB699A002300083398585B
:101EA00024230009F91817F0EAF97E6A01003200CC
:101EB000386937F013FC3B699E19BB690133BB617C
:101EC000BA69FB68934204D0731C3B612E233370C4
:101ED000E1E77969B86817F0E5F8AB6A0100DB6AF9
:101EE0000022686A9847FB69002BA9D07B680434FC
:101EF0009C42A5D0A168AB6A00221B6D686A0909E3
:101F00009847F3E7002906D0032382680B40134368
:101F100001D10B6883607047F7B507000C001E0005
:101F200000290DD003230D001D40194211D14B682B
:101F3000D9B291420DD11B0A0193019B9D4200DB56
:101F4000F7BD2300AA00083338009958B04701357F
:101F5000F3E721003800B047F2E70000F8B50F00C2
:101F600011001A000023040085780669837003615C
:101F70000F4BFFF7D1FF6368002B18D1618A00294E
:101F80000BD0228A002A08D1A36A606AA0331B689A
:101F90009847A36A606A1B6C9847238A390020001F
:101FA000628AFFF776FE6B1E9D412661A570F8BD23
:101FB000992A001070B5437804000D00012B06D15A
:101FC000036A0A001B8B0221FFF7FCFE2861AA6846
:101FD00029694C232000FFF7C1FF70BD70B51300C5
:101FE000427805000C00012A04D10A000721FFF7FE
:101FF000E9FEA061A669280031004623E268FFF7E8
:10200000ADFFB08A70BD000010B59D22024B8968FB
:10201000FFF782FF10BDC046892F001010B56B225C
:10202000024B8968FFF778FF10BDC046E1480010F9
:10203000436870B50D0004001100002B07D104485F
:102040000EF04EFE290060602000FFF75BFF70BDC0
:102050000C320410F0B50D000162002142702B78A3
:1020600091B0049204008E4AC160072B2DD1049BCD
:10207000012B05D0036B021D1B680499C06A9847A9
:102080006378EF68032B10D1380046210FAA0C307B
:1020900016F0A6F8236B01009B680F9AE06A984738
:1020A00063686883002B00D0BBE03969002946D003
:1020B0000F230B40022B3ED10B09752B42D009D8C0
:1020C0003E2B41D05E2B3AD0764A2000FFF7B0FF7E
:1020D00011B0F0BD0320744A07909342F4D17B699C
:1020E00019210DAA0CA80C9316F07AF800230A9077
:1020F0000893089B0A9A934228D16378012B16D93A
:10210000236B07995B68E06A98476378042B0ED1CC
:10211000079B206AE26A0393438B05210293002305
:102120000193009393680069D26803F090FB6368A1
:10213000002B76D1CCE720005C4AFFF779FF022321
:102140000793CCE70023FBE70123F9E7089B9B00FB
:102150000693069A0D9B9958FF224B681340082B53
:1021600002D1089B0133C3E7052B01D0504AACE7ED
:10217000CB68002BFAD1FF208B685A6802402C2ACA
:10218000F4D19E681D3A3240022AEFD1DD68002D5D
:10219000ECD0AB07EAD16B680340302BE6D12800C6
:1021A000A4210EAA083016F01BF8AE2336090590BC
:1021B0009B009E421CD1012805D10F210E9A136865
:1021C0000B40022B04D03B4A0D9B069959587CE7E3
:1021D000E1684B1CE360049B012B1ED01268236B4B
:1021E000E06ADB6812099847002816D1324AEBE70B
:1021F000F4235B009E4217D1059B012B04D10E9B5B
:102200001968059B194201D12C4ADDE7049B012B7B
:1022100003D0E06A4910FEF76EF96368002BA0D086
:102220002F003B68A36053E78D239B009E4229D17A
:10223000059B012B06D90E9B01221B681E00164030
:10224000134201D11E4ABFE7049A012AE5D05B1070
:102250000B930E9AB30098580FA915F02DFD002886
:1022600001D1184AB0E7E36A0F9809930FF091FF84
:102270000B9902000998FEF745F9059B0136B34218
:10228000E7D1CAE7049B012BC7D0236B31001B6940
:10229000059A9C46E06A66460E9BB047BDE7C0467D
:1022A00012CE031036CE0310A603000043CE031057
:1022B0006BCE03108ECE0310AACE0310BACE03103D
:1022C000D6CE0310FBCE031010B5024AFFF7B0FEC6
:1022D00010BDC0461DCF03104B6870B5DBB20400C3
:1022E000092B10D1858A094B9D4203D12000084A51
:1022F000FFF79EFE638B228B2900D21AA36A606AC5
:102300005B6F984770BDC58AEDE7C046FFFF0000D0
:102310003ACF031070B5050000290FD00F230B40F2
:10232000022B0DD10C0920000CF0A4FA002806DACB
:102330002200054905480EF05DFD6860002070BD73
:10234000034AFFF775FEF9E75ACF0310A0310410D6
:102350004ACE031070B5140005000E001278002B51
:1023600013D0002A07D0032A05D0104A31002800D4
:10237000FFF75EFE08E0032626706168286A18F001
:10238000D9FD002800D0067070BD002A0AD10123B3
:1023900023702100006A18F0D6FD2378044A012B2F
:1023A000F2D1E3E7062AEFD0024ADFE76CCF031051
:1023B0008BCF0310A9CF0310F0B5437804000D00B4
:1023C00085B0012B11D14B68DBB21A00103A514293
:1023D0004A41D2B20192102B09D0036A1B78002B1C
:1023E00005D129000F4AFFF723FE05B0F0BD2800F4
:1023F0006D2103AA083015F0F3FE00260700B7424E
:10240000F3D0039BB200D158206A0022090918F0CA
:1024100070FD29000200019B2000FFF79BFF0136A1
:10242000EDE7C046CACF031010B50B004178026A31
:10243000012904D11900100003F0C7F910BD816A09
:10244000406A203103F0D1F9F8E710B50400627852
:102450000B00006A012A02D118F04BFD10BDA16AE1
:1024600002001031606A03F0C0F9F7E770B50500AB
:102470000C1E1AD0CB0705D5836A49105B6B686ABE
:10248000984712E08B0714D00F2309092340022B31
:1024900009D0062B0AD0052907D0836AC9B21B6B65
:1024A000406A984701E0FFF7D0FF70BD836A9B6BDD
:1024B000E5E7836A0968DB68406A98476368034A0E
:1024C000DBB29B00210028009B58D9E7601804105C
:1024D000F0B505000C001700032685B0019320001D
:1024E00015F014FC002807D0002F0CD1AB6A01991D
:1024F0009B6E686A984706E0200015F00CFC0028E7
:1025000003D0002FF2D105B0F0BD002C43D03442EF
:1025100041D163681A0A0292FF2213401E2B1AD17E
:10252000002F1CD0029B9E003619B442EBD0A1684C
:102530003A002800019BFFF7CBFF0434F5E72100A8
:102540000122B00008310958039B28007A40FFF7A8
:10255000BFFF013608E01F2B17D1002FE2D0002665
:10256000EB6803930133EB60029B013BB342E6DC73
:102570000299019B0131890009593A002800FFF7AF
:10258000A7FFAB6A03999B6AB3E7202B03D11F3BDC
:10259000A4685F40A3E721002800FFF767FFAB6A4C
:1025A0003900DB6E019A686A9847ACE7036A70B538
:1025B0001B780400072B05D0022B03D0144AFFF729
:1025C00037FD70BD8D68002D0FD1A36A0F211B6BE5
:1025D000606A9847A36A606ACC3300211B689847F9
:1025E00001212000FFF72EFBEBE7AB070BD16B6857
:1025F000DBB2AF2B07D12000A968FFF737FF20001F
:10260000FFF7A5FBDDE729002000FFF72FFFE1E73B
:10261000EFCF031070B5437804001500CE68012B8E
:1026200006D1036A0A001B8B2900FFF7CBFB706100
:102630000023200071691A00FFF72BFB2000F168CE
:10264000FFF714FF062D05D1A36A002188331B680C
:10265000606A9847A36A0121BC331D680023606A41
:102660001A00A84770BD70B50D000400C968FFF7D7
:10267000FDFEA9682000FFF7F9FE70BD4B6870B53C
:10268000DBB204000D00342B11D18968FFF7EEFE98
:10269000ED68AD68002D10D1A36A0F211B6B606A35
:1026A0009847A36A0422A03302211B6819E0836AB9
:1026B0000F211B6B406A9847EBE70326354225D173
:1026C0006B68DBB29A2B0FD1A36A0F211B6B606A78
:1026D0009847A968002910D10422A36A0231A033C7
:1026E0001B68606A984770BD9B2B0FD1A9682000BA
:1026F000FFF7BCFEEB689968ECE72000FFF7B6FE39
:10270000A36A0422A03331001B68EAE729002000F5
:10271000FFF7ACFEC5E710B504008968FFF7A6FE19
:10272000A36A0021DB6C606A984710BDF0B58D6824
:1027300087B004000292002D09D1002A26D002227F
:102740002900836AA0331B68606A98471EE003274C
:102750002B003B4001933D4200D08FE0FF266B6889
:102760003340372B14D1029B002B06D0836A022200
:10277000A03301211B68406A984720002900FFF719
:1027800075FEA36A606AA4331B68984707B0F0BD62
:102790009F2B73D1E86843683340A12B5ED1A221FF
:1027A000083005AA15F01CFDA9680390002926D061
:1027B000394224D14B683340372B20D1029B002B68
:1027C00006D0A36A411CA03302221B68606A9847A6
:1027D0002000A968FFF74AFEA36A606AA4331B6859
:1027E00098470127019B039A93420DD1002FCDD129
:1027F0001900A36A0322A0331B680131A4E720005B
:10280000FFF734FE0027EDE7019A059B9200D158AF
:102810000E1E09D003230026194205D14E68FC3351
:102820001E40373E73425E412000FFF71FFE002F1F
:1028300010D0002E05D1164A29002000FFF7F8FB22
:10284000A4E7A36A606AA4331B689847019B01331D
:102850000193C7E7002EF9D00E4AEDE7AB68002BD5
:1028600006D03B4204D15B6804223340372B00D0B2
:10287000052229002000FFF7CDFE87E72900200070
:10288000FFF7F4FDA36A0322A03301211B685BE775
:1028900008D0031025D0031010B50122FFF746FF22
:1028A00010BD70B50D00C9680400FFF7DFFDAB680F
:1028B00002211B09DBB2332B01D03F3BD9B2A36A03
:1028C000606A98331B68984770BDF8B54F680C0074
:1028D000896805000026FFF7C9FD3F0A0C3402365F
:1028E000B74200DCF8BD61682800FFF7BFFD216832
:1028F000AB6A090924399C331B68686AC9B29847D6
:102900000834ECE7F7B54E680D0033000D3BDBB241
:102910008968040001930127FFF7A8FD360AB74232
:1029200000DBF7BD2B00BA00083399582000FFF7F1
:102930009DFDA36A01999C331B68606A9847013723
:10294000EDE7F7B54E680D0089680400FFF78EFDCE
:102950000023360A0093032E03D9E3680093013362
:10296000E36001270C3501957B1C9E4221DC032E80
:102970001ED9E568606A6B1CE360A36A29009B6E40
:102980009847A36A00999B6A606A9847A36A0121E5
:102990009B68606A9847A36A606A1B6E9847A36A3F
:1029A000606ADB6D9847A36A29009B6A606A984752
:1029B000F7BD019B200059680237FFF757FDB7426A
:1029C00007DAA36A606A5B6D9847A36A606A5B6E08
:1029D00098470F22019B606A1968A36A0A409C33DA
:1029E0001B680A2A13D10909CAB20621252A01D077
:1029F000343AD1B29847B74205DAA36A00211B6F77
:102A0000009A606A9847019B08330193ACE7FF2561
:102A10004A682A40852A01D13221EBE78A680721DA
:102A2000002AE7D03321E5E710B504008968FFF7F5
:102A30001DFDA36A032198331B68606A984710BD87
:102A4000F7B54A680E00D3B21E3B59424B41040011
:102A50000025C768DBB201937B1CC360130A009397
:102A6000009B9D4205DBA36A39009B6A606A984718
:102A7000F7BD3300AA00083399582000FFF7F6FC91
:102A8000009B01359D42EEDAA36A3A001B6F019963
:102A9000606A9847E4E700000F2370B50B4004001C
:102AA000022B14D04868C0B2492809D048380828F9
:102AB00018D839F0D5FF081707171717170507009B
:102AC0000123A37070BD8E680D69002D0DD1A37810
:102AD000002BF7D1638A002BF4D020001C4AFFF7AB
:102AE000A7FAEFE78E68CD68EFE7A378002B27D031
:102AF000238A01339BB22382012B0FD1618AA36AFF
:102B0000606A002919D0A03300221B689847A36A85
:102B10000222A03300211B68606A98472900200028
:102B2000FFF7A4FCA36A606A9B6B31099847A36A0C
:102B3000606AA4331B689847C4E71B6C9847E6E7B4
:102B4000638A2900013320006382FFF78FFCB9E715
:102B500044D00310F7B504000E00C568CF686B1CA5
:102B60000193AB1C0022B968C3602B00FFF7B0FCD7
:102B7000B1682000FFF77AFCA36A691C606A9B6E4B
:102B80009847A36A2900606A9B6A98470121A36A53
:102B9000606A9B6849429847F9682000FFF766FC25
:102BA000A36A01999B6A606A9847F7BDF0B54369CB
:102BB00085B00393C668438B771C0293B31CC36034
:102BC000038B04008682C782438388680D0015F05A
:102BD0009DF8002821D1E368A86801930133E360E0
:102BE00015F099F8002804D1A36A39009B6E606A39
:102BF0009847A36A01999B6A606A98472000E96830
:102C0000FFF734FCA36A39009B6A606A9847012287
:102C10002000019BA968FFF75BFC039B2000636118
:102C2000029B29696383FFF721FCA36A31009B6A39
:102C3000606A984705B0F0BDF0B5C36887B00193EE
:102C40000133C360040088680D0015F05FF8021EB0
:102C500020D1E76820007B1CA968E3603B00FFF7F8
:102C600037FC2000E968FFF701FCA86815F053F86D
:102C700000281ED12B69002B02D16B69002B04D0D8
:102C8000A36A01999B6E606A9847A36A39009B6AA0
:102C9000606A98472800712105AA103015F0A0FA43
:102CA00000260390039B9E420AD120006969FFF72A
:102CB000DDFBA36A01999B6A606A984707B0F0BD83
:102CC000059BB200D758B86815F020F8021E1BD13A
:102CD000E368200002930133B968E360029BFFF7C9
:102CE000F7FB2000F968FFF7C1FBB86815F013F88F
:102CF0000028DED1A36A01999B6E606A9847A36A97
:102D000002999B6A606A98470136CBE78222F8B540
:102D1000174B92009F5804000D00002F26D1C66863
:102D20000122731CC36089683300FFF7D1FBA36ADB
:102D30001F2101225B69606A9847E96800290AD06F
:102D40002000FFF793FBA36A3A00BC331D68012102
:102D50003B00606AA847A36A0121C8331B68606A08
:102D60009847A36A31009B6A606A9847F8BDC046DD
:102D7000D81E002070B58D680400002D06D12900F2
:102D8000836AC8331B68606A984770BDAB070FD170
:102D90006B68DBB25E2B0BD1A968FFF767FBE968B4
:102DA0002000FFF763FBA36A0221C8331B68EAE730
:102DB00029002000FFF75AFBA36A0121C8331B68D2
:102DC000E1E710B504008968FFF750FBA36A606A69
:102DD000DB6D984710BD0000F8B5036A04001B784E
:102DE000072B03D01B4AFFF723F9F8BD8D68002D90
:102DF0000AD1836A0F211B6B406A9847A36A606AF5
:102E0000C4331B689847F0E703232A001A401D4289
:102E10001ED16B68DBB21B2B1AD1C668EF68731C1E
:102E2000C360B9683300FFF753FBA9682000FFF7C0
:102E30001DFBA36A606AC4331B689847A36A31000C
:102E40009B6A606A9847F9682000FFF70FFBD5E797
:102E50002900F9E772D00310F8B505000C004E68A0
:102E6000360AB700CF19BC4207D1AB6A3100A03394
:102E7000686A00221B689847F8BDA1682800FFF720
:102E8000F5FA0434EFE7896810B5002906D1836AA2
:102E90000A00A0331B68406A984710BD4B681B0AA4
:102EA000022B0CD1CB68002B09D09A0707D15B68A5
:102EB000DBB2AC2B03D10622FFF7ACFBEDE7FFF74B
:102EC000CBFFEAE7F8B505000E0000244F683F0A83
:102ED000BC420FDA3300A200083399582800FFF7EC
:102EE000C5FA6B68002B06D00234A4002800A15953
:102EF000FFF708F8F8BD0134EAE710B50400FFF762
:102F0000E1FFA36A22219C331B68606A984710BDC9
:102F100070B58D680400002D07D101222900836A55
:102F2000A0331B68606A984718E00322154221D13C
:102F30006B68FF211800084092281BD11B0A022B46
:102F40000DD1EB68002B0AD0134208D15B680B400F
:102F5000AC2B04D129002000FFF75CFB70BD2900D9
:102F60002000FFF7AFFFA36A6968A03301221B6846
:102F7000090AD7E729002000FFF778FA0122A36A9F
:102F80001100A0331B68CDE70F23F7B50B400500F8
:102F90000C00022B03D10909FFF746FAF7BD0029FF
:102FA00065D00327394262D1FF224B6813402C2B96
:102FB0003BD18968FFF75AFAE668002E57D03100F6
:102FC00039403E4253D1FF207268330010408E28B2
:102FD0000AD10F00130A0193019B013BBB4211DC94
:102FE000019B01339B009B595A68D2B2312A12D1FE
:102FF00028009968FFF73AFAAB6A0221DB6C686A2D
:103000009847CBE73300BA00083328009958FFF7F8
:103010002DFA0137E0E7322A29D19968AB6A686A4C
:103020001B6D0909303A9847B8E72D2B1FD18C68E2
:10303000002C1CD062682C3B120A022A0AD1E268DA
:10304000002A07D03A4205D15368FF221340AC2B27
:103050000DD0012362685E1C013B120A9A429DD981
:10306000B300E1582800FFF78FFF3300F2E721009B
:103070002800024AFEF7DCFF90E7C0468CD0031020
:103080009C460223F7B50400006A0192C68A0D002F
:103090001E4205D0354A29002000FEF7C9FFF7BDC2
:1030A0000F221140022918D1A3782909002B10D032
:1030B000838B013383830027012300930029EED003
:1030C000002217F016FF03780600002B37D0284A9D
:1030D000E1E7438B01334383EDE76968019BC9B2A4
:1030E0002F0099420CD1A968A3780909002B03D0BD
:1030F000838B01338383DFE7438B01334383DBE738
:10310000614515D1A378002BC4D10121A170A96814
:103110000029C4D004273E430A40C682022A03D1B4
:10312000F9401F000323C8E70F0089680909F9E780
:103130000223A9683343C38209090523BDE7042399
:103140000370009B4370236A1B8B032BA7D1019B49
:10315000482BA4D1002FA2D02000F968FFF7DAF89D
:10316000030170781843707099E7C046A4D003102B
:10317000B3D0031010B549234822FFF781FF10BDDB
:1031800010B54F234E22FFF77BFF10BD10B50B008B
:103190004178026A012904D11900100002F015FBE0
:1031A00010BD816A406A183102F01FFBF8E7000089
:1031B000F7B5032704000D00160039420DD00F2388
:1031C0000B40022B14D109099E43012E02D0FFF7B8
:1031D000DDFFF7BDFFF739F9FBE74968FF200B007A
:1031E00003402D2B7CD009D8062B0CD02C2B13D0D0
:1031F000290020004D4AFEF71BFFEAE72E2B00D1E5
:1032000083E09D2BF4D1002EF2D12A00090A083266
:10321000200000F0F5F8DCE7022A03D02000A968BE
:10322000FFF724F9EB680093002BE1D00323009A09
:1032300000991A401942DBD14B680F00D9B28E2990
:1032400009D11B0A17000193022E1AD1019B009A83
:1032500001339B009F587B68DBB2312B26D1022EB5
:1032600014D1A36A606A5B6E9847A36A0121DB6C84
:1032700019E0009BBA00083320009958FFF7F6F8D0
:103280000137019B013B9F42F3DBDFE72000B96878
:10329000FFF7ECF8A36A012EE8D19B6D606A9847AE
:1032A0000021A36ADB6C606A984792E7322B9FD1BA
:1032B000A36A606A012E09D15B6D98470022A36A58
:1032C000B9681B6D0909606A984782E7022E01D12F
:1032D0001B6E9847B968A36A01221B6D0909F2E7C2
:1032E000AA68002A84D0002E82D15168090A0229D6
:1032F00009D1D368002B06D0980704D15B68DBB2F4
:10330000AC2B00D174E7083282E7002A00D06FE7C7
:10331000A9680A1E00D17BE7394203D14B680340FC
:10332000922BE2D02A000121083271E7C8D00310A5
:10333000F7B504000D00C6681F00731C0193B31C91
:10334000C360836A31009B6A406A00929847A36A0F
:10335000606A8C331B68711C9847A96800222000A2
:10336000FFF726FF2D69002D2CD100992000FFF7D3
:103370007DF8236A1978A36A06291CD1CC331B680F
:103380002900606A984720000121FEF75BFCA36AD0
:10339000606ADB6D9847A36A3100606A9B6E98474C
:1033A000A36A0199606A9B6A9847A36A606A90332E
:1033B0001B689847F7BDBA00A8331B68606A0532DE
:1033C0009847E8E7FF226B681340AD2B07D1A96847
:1033D000330000222000FFF77BF8ED68C3E72000F0
:1033E000E968FFF743F8A36A606A883301211B6824
:1033F000984729002000009A7B1CFFF799FFCAE735
:10340000F7B50126050017000C00009101927642E5
:10341000002C16D1731C05D1AB6A0099AC331B6824
:10342000686A9847009B9C4228D0019AA300D15813
:103430000022A64200D189682800FFF7B9FE0134B6
:10344000F0E73968002912D0032319420FD1FF2277
:103450004B681340222B0AD101360BD1009B686ABE
:103460001E1BAB6A3100B0331B68621E9847013CDB
:103470000437CDE72800024AFEF7DAFDF7BDC04663
:10348000E3D00310F0B585B004001600019102935B
:10349000002904D10299FEF7E9FF05B0F0BDC76825
:1034A0007B1CC3601568002D2AD003232A001A4014
:1034B00003921D4224D16B68DBB27B2B20D1A9681B
:1034C000FEF7D4FF39002000039AFEF7C3FB20006B
:1034D000039AE968FFF76CFE0199321D2000029BF8
:1034E0000139FFF7CFFFA36A3900DB6F606A9847A5
:1034F00020000321FEF7A6FB2000FEF7BBFBCCE774
:1035000029002000FEF7B2FF200000223900FEF75C
:10351000A1FBA36A606ADB6D9847DDE737B505005C
:1035200008000C0001AA7A21083014F059FEE36863
:103530000100019A2800FFF7A5FF37BDF0B58A68A2
:103540000D00CB680F2104008BB00A40022A00D086
:1035500002E1002B00D1FFE003273B4200D0FBE05B
:10356000FF205A6802402C2A00D0F5E09A681140EA
:10357000022900D0F0E012097C2A00D0ECE0DA68E1
:1035800053680340302B00D0E6E09368A23109AACB
:1035900008A8089314F024FE431E022B00D9DBE098
:1035A000099B1A680192012800D1CAE0022800D1C3
:1035B000C5E09F68FA0700D4CEE07A1000D1CBE0D6
:1035C0005E68019B002B08D09B0706D1019B5B68BE
:1035D000DBB2A63B022B00D8BEE0002E07D0B3071B
:1035E00005D17368DBB2A63B022B00D8B4E0AB6810
:1035F000320004932B6905936B69E5680393636953
:10360000A5820793638B0693AB1C02936B1CE3822A
:10361000238B63832B1DE36001231A4002921E4219
:1036200003D131002000FEF721FF20000199FEF7B1
:103630001DFFA36A606A9B6EE91C9847A36AA91CD8
:103640009B6A606A9847A36A606A5B6D984700222C
:1036500020000499FFF7ACFD20000599FEF706FF56
:10366000A36A606A9B6A691C984739002000FEF7CC
:10367000FDFEA36A0E219C331B68606A9847A36A0B
:10368000606A9B6AE91C9847029AA36A002A5BD188
:103690009B6D606A9847A36A606A1B6E9847A36A2D
:1036A00000219C331B68606A002F00DA012100268C
:1036B0009847A36A0121DB6E606AAA1C9847079BA2
:1036C0006361069B6383039BB3421ED0A36A606A57
:1036D000DB6D9847029BB34203D1A36A606ADB6D3E
:1036E000984720000399FEF7C1FEE668606A731CE4
:1036F000E360A36A31009B6E98470121029B606AD8
:103700005940A36A01319B689847A36A29009B6AC4
:10371000606A9847A36A606ADB6D9847029B002B3A
:1037200003D1A36A606ADB6D9847039B002B04D02A
:10373000A36A31009B6A606A98470BB0F0BD03270B
:103740003EE7019E019048E7606A5B6D9847310053
:103750002000FEF78BFEA2E76369E6680293638BA5
:10376000771C0193238B200063831D4BE96833434F
:10377000A382F31CE360E782FEF778FEA36A606A27
:10378000883301211B689847A36A3900606A9B6AE5
:103790009847A36A606A8C331B68B11C9847002263
:1037A0002000A968FFF704FD20002969FEF75EFEEE
:1037B000A36A3900606A9B6E9847A36AB11C606A6D
:1037C0009B6A9847A36A606A90331B689847029B7C
:1037D00020006361019B69696383FEF747FEA7E7E9
:1037E0000080FFFFF0B587B004001700029103933B
:1037F000002904D10399FEF739FE07B0F0BDC66871
:10380000731C0193B31C0493F31C0093331DC3601A
:103810001568002D00D1D1E003232A001A4005923B
:103820001D4200D0CAE06B68DBB27B2B00D0C5E044
:10383000A968FEF71BFEA36A606A5B6D9847E121E9
:1038400020004900FEF79BFA2000059AE968FFF77F
:10385000AFFC022231002000FEF7FCF9A36A606A87
:1038600003219B68984702993A1D2000039B013968
:10387000FFF7B8FF0321A36A606A9B684942984733
:10388000A36A320004330199DD6F606AB31CA84754
:10389000A36A606A5B6D9847A36A606A5B6E98472B
:1038A000A36A606A1B6E9847C421A36A0022FF3195
:1038B000606A5B6C9847A36A606A5B6E9847A36A0C
:1038C000606A5B6E9847A36A606A5B6D9847A36AFB
:1038D00000220A21606A1B6D9847A36A606A1B6E0A
:1038E0009847A36A606A0F211B6B9847A36A03215C
:1038F000C0331D680023606A1A00A8472000FEF745
:1039000026FAA36A009A0021606ADB6E9847A36AD0
:10391000606ADB6D9847A36A606A0F211B6B98474A
:10392000A36A0099606A9B6E9847A36A606A022145
:103930009B689847A36A0499606A9B6A9847A36A40
:10394000606A5B6E9847A36A606A5B6E9847A36A79
:103950000199606A9B6A9847C421A36A0022606A41
:103960005B6CFF319847A36A0F21606A1B6B984715
:10397000A36A606A5B6D9847A36A606A5B6D98474B
:10398000A36A0321C0331D680023606A1A00A84798
:103990002000FEF7DCF9A36A606ADB6D984701211D
:1039A000A36A606A9B6849429847A36A606A9B6AF7
:1039B000009998472000FEF75DF91EE729002000D6
:1039C000FEF754FDA36A606A5B6D9847E121200011
:1039D0004900FEF7D4F9A36A606ADB6D984738E7BF
:1039E000F7B5CD6804000E00002D2DD10378002B13
:1039F00018D0036A1D78002D14D1D021FF31FEF7B5
:103A000024FDB1682000FEF731FDA36A2A00BC3313
:103A10001E6801212B00606AB047A36A606ADB6DF3
:103A2000984710E0B1688B0707D00F230B40022B9B
:103A300009D12000FEF71AFDEFE70029F9D04B6805
:103A4000DBB23A2BF5D1F7BDAB0750D16B68DAB2D8
:103A50005B2A10D1ED68002D49D1006A0378072B4D
:103A6000F1D1896808330B40022BECD10909573A90
:103A700017F03FFAE7E7562A13D1553A8968FFF75E
:103A800097FB2000E968FEF7F1FCA968A36A090921
:103A90003E399C331B68606AC9B298470222B168FC
:103AA00089E0572A23D11B0A5F1E01339B00595915
:103AB000FEF7DCFC002F03DDA36A606A5B6D9847AC
:103AC000B16800222000FFF773FB0026BE42BADA7D
:103AD0000136BE4203DAA36A606A5B6D9847291D0E
:103AE000B30000222000C958FFF762FBEEE7032174
:103AF0000D4264D16B68FF22180001931040062824
:103B00005DD1B768002F5AD00F4258D178680300B2
:103B10001340062B53D1030A00930098019B1B0A04
:103B200083424CD10300023B012B48D8BB68002BD9
:103B300005D00B4203D15B681340222B3FD0FB68BA
:103B4000002B05D09A0703D15B68DBB2222B36D05D
:103B5000009B022B08D03B69002B05D09A0703D1AC
:103B60005B68DBB2222B2AD02000A968FEF77EFC1E
:103B70002000E968FEF77AFC009B032B07D12000A8
:103B80002969FEF773FCA36A606A5B6E9847A36AB3
:103B9000606A1B6E984700222000B968FFF708FB97
:103BA00000222000F968FFF703FB009B032B00D0E5
:103BB00049E7002239692000FFF7FAFA43E72900B4
:103BC0002000FEF753FC002269E700000023F7B550
:103BD000C360030034334270016204000D0017001B
:103BE0001A70032A03D1C08E002828D1A0630026B2
:103BF000A36A39002A001B68606AE6869847062196
:103C00002000FEF71FF86778012F01D16E84AE8483
:103C1000EE68002E17D0B30715D17368DBB23F2BC7
:103C200011D12000B168FEF721FCA36A606AC43399
:103C30001B689847A36A606A5B689847FEBD80006E
:103C400006F0EDFBD2E72878072800D992E038F09B
:103C500007FF049125414141410E31002000FEF74C
:103C600005FCA36A0F211B6B606A9847DDE7012FF3
:103C700012D10023A3704622554B2000F168FEF7B5
:103C80004BF92B8B032B07D120003169FEF742FB48
:103C90008301E88A1843E8827169DFE7A36A316823
:103CA000DB68606A98476378012B07D10023A37013
:103CB0004C222000474BB168FEF72EF92000F16836
:103CC000FEF7D4FBEB8ADB07AFD5A36A606ADB6D36
:103CD0009847C6E7F3680193012F05D10422390004
:103CE000206A17F006F96F83A36A3168DB68606A9F
:103CF00098472B78032B24D10122A36AA0331B6899
:103D00000021606A98472B78062B28D1A36A606A45
:103D10001B6C984701212000FEF797FBA36A606A9D
:103D20001B6C9847A36A606A1B6C984700232000AD
:103D3000B2680199FFF7FCFA2B78062B00D074E7E4
:103D40008FE7042B04D1A36A0222A0331B68D7E7B4
:103D5000052BD8D1A36A0322A0331B68D0E720002B
:103D60000121FEF772FBA36A012188331B68606A98
:103D70009847DBE7012F04D104220A21280017F01D
:103D8000B8F817212000FEF760FB16212000FFF78E
:103D9000FDF9B168A36A606A9B6B090998471A210B
:103DA0002000FFF7F3F920003169FEF75FFB0A21DD
:103DB000280017F08EF80278A36A042A00D151E790
:103DC00042881D690A210023606AA8472DE7C04682
:103DD000753100108131001010B5036A04001A8B90
:103DE000FEF7FCF801002000FFF7D0F910BD00003D
:103DF000F0B58D6804006B6885B0DBB2032B09D188
:103E00002900FFF7E9FF0123AA69D18A0B43D38276
:103E100005B0F0BD0121026AD28A0A4204D129000C
:103E20005B4AFEF705F9F3E7162B00D0A2E0C6685F
:103E3000E968331DC360FEF719FBE221A36A606ADB
:103E400000225B6C49009847A36A606AC0331F6810
:103E500000231A001900B8476369E7680093638B71
:103E6000606A0193BB1CE3607B1CE382238B791C9B
:103E70006383A36AA7829B6A984701222000B11836
:103E8000FDF7E8FEA36A606A5B6D9847C6212000D3
:103E9000FF31FDF774FF2000A9680022FFF788F9C1
:103EA000A36A00229433606AB11C1B689847A36A16
:103EB000711C606A9B6A9847A36A606AD0331B686A
:103EC0009847A36A606A5B6D9847D421A36A012270
:103ED000606A5B6949009847A36A606A9C3308215D
:103EE0001B689847A36AF21C0021606ADB6E984742
:103EF000A36A606ADB6D9847A36A0122943331009C
:103F0000606A1B689847A36A606AF11C9B6A9847BD
:103F1000A36A01219B68606A98472000FDF7AAFE0A
:103F2000A36A606AD4331B689847A36A606A9B6A75
:103F3000B11C984720002969FEF798FAA36A606AC5
:103F4000791C9B6E9847009B31006361019B606AFE
:103F50006383A36A9B6A984720006969FEF786FA23
:103F6000A36A606A39009B6A9847A36A606ADB6D3E
:103F700098474DE7280003AA7A21083014F030F959
:103F8000EB680100039A2000FFF72CFC40E7C046D5
:103F9000FDD00310F0B504000F001E00C56887B007
:103FA0006B1C0593AB1CC360290004920122FDF732
:103FB00051FE39002000FEF759FAA36A002294331B
:103FC0001B68606A691C9847A36A29009B6A606A3B
:103FD0009847A36A606AD0331B689847E368370044
:103FE00001930133E36000230093009B049A934202
:103FF00016DB2000FDF73EFEA36A606AD4331B681F
:104000009847A36A05999B6A606A984720000C99B3
:10401000FEF72CFAA36A01999B6A606A98475DE0F3
:104020003B680393E36802930133E360039B9E685C
:10403000009B01330093002E52D1049B009A9342BF
:1040400044D10025A36A606ADB6D98472E00039B6C
:104050002000D968FEF70AFA002D24D0A36A0F21A8
:104060001B6B606A9847A36A31009B6A606A984735
:10407000A36A01219B68606A9847A36A0F211B6BA2
:10408000606A984729002000FFF780F82900200087
:10409000FEF7CAF90121A36A606A9B684942984702
:1040A0002000FDF7E7FDA36A012294331B68019904
:1040B000606A9847A36A02999B6A606A9847A36AF4
:1040C00001219B68606A984704378EE720001E4AEA
:1040D0003968FDF7ADFF2000FDF7CCFD07B0F0BD5E
:1040E0000325032335401E422CD1FF217368320083
:1040F0000B40762B02D1D568B6682D09A36A606A99
:104100005B6D984731002000FEF7B0F9A36A0821E3
:104110009C331B68606A9847A36A0021DB6E029A91
:10412000606A9847002D00D18BE729002000FFF737
:104130002DF8E6680222731C31002000E360FDF7D1
:1041400089FD84E70025D9E723D10310F0B5C768BE
:1041500085B003937B1C16000D0002223900C3605A
:104160000400FDF777FD002E2CD1A36A03219B6884
:10417000606A984729002000FEF778F90321A36AB6
:10418000606A9B6849429847A36A606A0F211B6B6B
:104190009847A36A3900606A9B6A9847A36A606A75
:1041A0009B680121984720000B99FEF75FF90121D8
:1041B000A36A606A9B68494298472000FDF75AFD50
:1041C00005B0F0BD0A9B3200009329002000039B3C
:1041D000FFF7E0FED8E77FB5CE68050073680C00F6
:1041E000DBB2782B09D10022B3680092019313004F
:1041F0002800A168FFF7AAFF7FBD742B17D13000FC
:1042000003AA7721083013F0EBFF33690200002B7B
:1042100007D1F36800932800039BA168FFF7BAFE5B
:10422000EAE79B680193F3680093039BE0E70800CB
:1042300003AA77210C3013F0D3FF00230200E9E733
:104240000F2370B50B4004000D001600022B02D0A6
:104250001D4AFDF7EDFE31002000FEF707F9A36AC5
:10426000606A5B6D984763782E09012B0FD1226A33
:104270001378033B032B0AD85068310001F0A5FAEC
:104280000278032A08D13100206A16F032FE31008C
:104290002000FEF77BFF70BD00223100206A16F07F
:1042A00028FE236A02005B6859684B424B41DBB22F
:1042B000002904D01178012901D1002111702900B1
:1042C0002000FEF747F8E2E7C8D00310F0B589B048
:1042D000059104920400A42107AA05A81E0013F06A
:1042E0007FFF00231F000390019302930093019B23
:1042F000039A934213D1002F04D0A36A02995B6BF7
:10430000606A9847049AA36A606A002A00D17BE039
:10431000C0331C6831003B00009AA04715E0019AA9
:10432000079B9200D558002D5FD003231D425CD11E
:10433000FF216B680B40A62B1ED1A43B1F4206D069
:10434000324A29002000FDF773FE09B0F0BD019B41
:104350001D2B01D92E4AF4E701273B00019A2000CA
:104360009340029AA9681A430292FEF77FF8F61961
:10437000019B01330193BAE7A72B0DD1A53B1F4346
:10438000A36A606A1B6C9847A9682000FEF76EF864
:10439000009B01330093EBE7A82B26D1EA68002AA3
:1043A0000FD0A53B1A420CD153680B40AA2B06D163
:1043B00020009268A968FFF743FF0136D8E7AC2BCD
:1043C0000DD00F23A9680B40022B01D0114AB8E78A
:1043D000A36A09099B6B606A9847E968D5E70622DA
:1043E00029002000FEF716F9E7E702231F4201D05B
:1043F000094AA6E7009B002B01D0084AA1E7290043
:104400002000FEF733F8D8E7BC3382E741D1031030
:1044100050D103105ED103107FD1031097D1031048
:1044200070B50D00417804001300012903D12A0062
:10443000FDF7C8FC6861A36A606A9B6C984700231B
:104440006E691A0031002000FDF723FCA36AB18ACF
:104450009B6B606A9847E968002909D003230A002A
:104460001A40194204D14B68DBB2A32B00D11100D2
:10447000200002230022FFF729FFB08A70BD00232D
:1044800010B51A008968FFF721FF10BDF7B50D00C0
:1044900089680400FDF7EAFFEE68002E2DD07368EE
:1044A000DAB28E2A2AD02E0001230C3600930F2276
:1044B000216AAB68097800251A40072900D078E006
:1044C000022A4ED11A099A2A00D074E03268536841
:1044D000DBB2302B45D19368AB4242D1033120008F
:1044E000FDF7B3FF0121226AD36A128D002A09D198
:1044F0002000474A3168FDF79BFDF7BD1B0A00937A
:104500000836D4E75878084210D059682000FDF7E3
:104510009CFF009AA36A022A0BD8BC331D680023B3
:1045200002211A00606AA84701251AE0013A0833FF
:10453000DCE7FF2071684A680240322AEDD1B56895
:104540006A680240302AE8D189685B6C606A0909B0
:104550002F3A9847A968002301222000FFF7B6FEF2
:104560000325009BAB42C8D96B1C009801936A1CC1
:10457000AB00F158824245D2FF204A680240322AFD
:1045800040D1F3185F687B680340302B3AD18968CB
:10459000A36A00225B6C606A090998470023012224
:1045A0002000B968FFF792FE019D0135D9E700258B
:1045B000D7E7022AD5D1C42200251B095200934215
:1045C000CFD13168893A4B681340302BC9D18B6801
:1045D000AB42C6D003211D000D400B42E7D15B6802
:1045E00013402F2BBDD1A36A2A00BC3329001F68BA
:1045F000606A2B00B84733682A0020009968FEF7EC
:1046000095F891E72000FDF731FF0195CCE7C04612
:10461000B8D10310036A10B51B780400072B05D02E
:10462000022B03D0054AFDF703FD10BD2000FFF764
:104630002DFF2000FDF78BFBF7E7C046D0D103101C
:1046400010B5CA688968FFF7FBFD10BD10B5036A95
:1046500004001A8BFFF7E4FE01002000FEF796FD30
:1046600010BD0000F0B50400080089B005910830C5
:10467000422106AA13F0B4FD0027236A03901E8B83
:104680000297039B9F420BD1059BD9684B68DBB215
:10469000032B52D132002000FDF7A0FC05005AE0A8
:1046A000069BBA00D3586C21180007AA083004935F
:1046B00013F096FD079B050019680A09732A0FD0AD
:1046C0002000FDF7D3FE01230193019BAB4227D3CA
:1046D000049BD96800291FD02000FDF7C7FE1BE00E
:1046E000022805D02000294AFDF7A2FC35000FE082
:1046F00059680B09412B11D0254A934208D0254A0D
:104700000325934204D0C73AFF3A01359342E9D1D9
:104710002E00029B013302930137B2E70125F7E730
:10472000019A079B9200D158A36A00221B6D606A10
:1047300009099847019B0133C6E7442B17D18F68BD
:10474000320039002000FDF749FC01230500BA6959
:10475000D18A0B43D3820026039B029A9B1AB34251
:104760000AD829002000FEF711FD09B0F0BD320083
:104770002000FFF755FE91E7A36A0121BC331F68B3
:104780000023606A1A00B8470136E5E7E9D1031053
:10479000F3020000BA0300000F23F0B58E68040096
:1047A0000D0085B033400A2B0BD000218E4216D06D
:1047B0000323310019401E422ED17368DBB2652BF2
:1047C0001CD102960026652103AA02A813F008FD59
:1047D0000021039B80003F4AC018834214D13E4B06
:1047E000EA689A4236D1236A1F78002F16D0290032
:1047F00020003A4AFDF71CFC05B0F0BD622BEED15B
:10480000B3680293F668DEE71F68974202D1013170
:104810000433E2E70331FBE70021E0E7A36A606AC3
:104820005B6B9847A36A606A05219B6B9847A36AF4
:104830003A00A0331B68606A0121984731002000CC
:1048400003AAFDF7D5FAA36A02223900DB6A606A7F
:104850009847D1E7A36A606A5B6B984728006A2192
:104860000C3002AA13F0BCFC00270500A36A606AA2
:10487000AF4211D1A033002229001B6898473100B4
:10488000200003AAFDF7B4FA0026A36A606AAE42CC
:104890000BD1DB6D9847AFE7029AB9008A589B6B42
:1048A0009168013709099847E0E7029AB1008F58EB
:1048B000DB6ABA6812090192019901229847F968E6
:1048C000002905D101992000FEF760FC0136DCE7E4
:1048D0000909F8E7CA0500001A04000007D203100E
:1048E00037B504000D00836A00215B6B406A98476E
:1048F000A36A606A1B6B0F2198472900200001AA58
:10490000FDF776FA20000199FEF740FC37BD000064
:10491000F0B5A1B0069010201400079105F060FDDD
:10492000D02212061268BB4B9200D35800211B699B
:104930005822436007000AA834F0CAFE0AAB1C7074
:10494000012301215B4219A80F9305F081FD02218B
:10495000079B0122DB00194319A805F0B3FD0123D1
:10496000002143601CA80DF065FF8322AA4B920032
:104970009B5C069A002112680AA8FDF723FA0190B1
:1049800017A800F0A5FEA54B119C149300230390DB
:1049900013900293002C02D00B9D002D1ED0119C71
:1049A000002C02D00B9B002B37D0002502990398D6
:1049B00000F095FE119C0B9E002C00D134E1002EDE
:1049C00000D1DEE0129C0AA8E168FDF79BFA3000F6
:1049D000A38A0C9A07990CF04DFA28E1238B012247
:1049E00021000AA8042B08D1FDF734FB0D9B029A85
:1049F0009A4200D20293A468CCE7FFF7E7F8238D30
:104A00009D42F3D2E26AEB00D118D35C012B02D1B4
:104A1000200016F098FA0135F1E70421E28A0A42F3
:104A200015D0218D01394A1C11D00225E26AC80037
:104A300012185078284225D0002B08D0596815004C
:104A40008C46186842CD42C363461060536000250F
:104A50002584238D04939D421ADB00230120049AB0
:104A60009A4244D16568002D0AD000222B8D09930B
:104A7000130009998A4249DB00220125934275DC23
:104A8000A4688DE7002BCDD10128CBD11300C9E755
:104A9000E66AEB00F6182378012B04D173680A2B21
:104AA00010D10135D5E73278012B0BD9012A09D174
:104AB00003233370238B032B13D01022E38A134379
:104AC000E38202E03378032BF4D03378042B03D055
:104AD000012273781342E4D0238C5A1C2284738001
:104AE000DFE7706809F0C6FE0128EEDCE5E7E16A61
:104AF000DA008D188A5C052A06D16A78024203D151
:104B0000228C6A80013222840133A8E7E86AD1004E
:104B10004618415C08960539012918D8002111E092
:104B20000599E66AC8003118305C8C46062807D122
:104B300008994E6861464868864201D14B8001332E
:104B4000059901310591059804998142E8D1013216
:104B50008FE7E06AD1004618415C062902D17178DE
:104B6000294202D07188C91871800132049991429A
:104B7000EFD1628B9BB29A186283228C9B1823849C
:104B80007EE7238B042B19D1159B002B03D10298B0
:104B900001F088FA159000231393214B0322210082
:104BA0000AA81693FDF756FA0B9B002B04D104229A
:104BB00021000AA8FDF74EFAA468FCE6023B012B8F
:104BC00023D8002D06D1029B0DAA0BA917A803F02C
:104BD0007FFF0500134B13951493022221000AA8AE
:104BE000FEF7F4FF0B9B002BE6D1032221000AA85D
:104BF000FEF7ECFF0B9B002BDED1042221000AA85C
:104C0000FEF7E4FF0028F8D0D6E7039B1393034B8D
:104C10001493E2E7AC1A0020D81E00204C190410AF
:104C2000241A0410341B0410002E00D0CAE6019B85
:104C30000B9E1B690293002E14D0039800F057FDC1
:104C4000002D3AD11598002801D001F040FA0698BD
:104C500013F0BEFC019B002B33D10B98002837D0FA
:104C600009F09AFE199C1E9BE40864000334A00816
:104C7000C018800005F0B4FB03239C430419FC60BA
:104C80001B991A9CB860A6420AD100231E998B4238
:104C9000D3D01F989A008458F86801338450F6E7FF
:104CA0000A68002A06D0042A04D04B68D2085B1098
:104CB0005B001A5201360831E5E7280003F028FFAF
:104CC000C0E7019B9C68180016F0FAF80194C1E750
:104CD0003900019A029800F0CDFD21B0F0BDC04628
:104CE000D02212061268044B9200D35882B0186882
:104CF00001ABC01A02B07047AC1A002010B5FFF724
:104D0000EFFFD02212061268044B9200D3585B6862
:104D1000984201D315F074FF10BDC046AC1A0020B4
:104D20004379012B07D08368C918036981605A8CC5
:104D3000914200DD59847047002383714379012B30
:104D400003D0C26A036A8900CA507047042110B5B3
:104D50004942FFF7E5FF10BD10B50421FFF7E0FF62
:104D600010BD032110B54942FFF7DAFF10BD426ABA
:104D7000030040795118032802D81800596270477F
:104D8000586B8018FAE782790300002A01D01800D6
:104D90007047C26A40798918032801D8D962F6E7BA
:104DA000986AD9621218586B8018F1E710B50C0098
:104DB0000121FFF7E8FF047010BD70B50400150075
:104DC000FFF7AEFF01212000FFF7DDFF057070BD8A
:104DD00010B553220121FFF7F0FF10BD10B554228A
:104DE0000121FFF7EAFF10BD10B557220121FFF79F
:104DF000E4FF10BD10B558220221FFF7DEFF10BD01
:104E0000012110B559224942FFF7D7FF10BD10B557
:104E10005A220021FFF7D1FF10BD10B55B220021FF
:104E2000FFF7CBFF10BD012110B55D224942FFF70E
:104E3000C4FF10BD5E2210B5002901D0032101324C
:104E4000FFF7BBFF10BD10B53039CAB20021FFF724
:104E5000B4FF10BD022110B562224942FFF7ADFF39
:104E600010BD012110B5632249420400FFF7A5FFE0
:104E70000123A37110BD0A00643210B5D2B24942B9
:104E80000400FFF79AFF0123A37110BD0A0010B5BB
:104E900004006732D2B24942FFF78FFF0123226933
:104EA000D18A0B43D38210BD70B51D000400FFF7FB
:104EB00084FF2A0020000249FBF70AFE70BDC046AD
:104EC000874D001070B50D0004001900C068160071
:104ED00000F04AFC3200030029002000FFF7E4FF45
:104EE00070BD10B50B0010220121FFF7EBFF10BDC4
:104EF00010B511320B000121D2B2FFF7E3FF10BD54
:104F000010B514000B00012164001432D2B2091B49
:104F1000FFF7D8FF10BD0B00012110B51632D2B239
:104F20004942FFF7CFFF10BD10B519320B00002129
:104F3000D2B2FFF7C7FF10BDF8B5C4681D002678D0
:104F40006388042E02D166689F00BD515D1C658098
:104F5000FFF7AAFFF8BD110010B52833DAB20B0035
:104F60000021FFF7A1FF10BD10B501240B002100A7
:104F7000022A00D0E11A2A32D2B2FFF795FF10BD03
:104F800070B500242500032903D0042909D1013478
:104F90002500A3189B002B43E1432F22FFF784FF3A
:104FA00070BD00240225F4E710B50B003022013952
:104FB000FFF77AFF10BD10B513020B438918312299
:104FC000FFF772FF10BDF7B5060001931700FFF75A
:104FD000A7FEB379002B20D172791C000125022A8B
:104FE00010D9019A316AF06A92005258023C241A90
:104FF000A418442F12D82200403202DB3F2C00DCE0
:105000001D00641B3000A91CFFF7BDFE0770002DBA
:1050100009D1442F00D840344470F7BD7F25A54204
:10502000AD416D42EDE7442F02D88023DB01E41847
:105030007379042B06D180231B029C4202D30123E7
:105040003836337080235B422343E411437084700D
:10505000E3E710B50B00422200210400FFF7B3FF85
:105060000123A37110BD0000F8B5174F05000C0017
:1050700016000F40002A19D124040ED55921FFF73C
:1050800095FE59212800FFF791FE59212800FFF7CE
:105090008DFE59212800FFF789FE3B0042220021A6
:1050A0002800FFF790FF0123AB71F8BD3B004022C1
:1050B0000021FFF788FF7F23210A9943314328000D
:1050C000C9B2FFF773FEEEE7FF7FFFFF10B51400D4
:1050D0000B0061424C414732D2B26100FFF773FFCF
:1050E00010BD10B50B004B220121FFF76CFF10BD66
:1050F00010B50B004A2200210400FFF764FF0123D2
:10510000A37110BDF7B58222234B92009B58050076
:105110000191022B0DD88769B9420AD9C46A426944
:10512000CF1BA41A3B00234304D1EB6A6B61019BA4
:10513000AB61F7BD062F01D90F2C18D900941F2C95
:1051400001D91F230093009B00269C4203D83E00F8
:10515000032F00D9032601212800FFF708FE009A3B
:10516000730113430370009BBF1BE41ADAE780232B
:105170003E001B019F4200D3084E02212800FFF78A
:10518000F6FD7022330913402343F03A13430370B2
:1051900046700094E7E7C046D81E0020FF070000D5
:1051A00010B50400002905D1552201392000FFF770
:1051B00004FE10BD022904D1FFF70AFE2000FFF70C
:1051C0002CFE032156224942F0E7130010B543227A
:1051D000002900D1442201214942FFF7F4FE10BD0D
:1051E000130010B54522002900D146220121494271
:1051F000FFF7E9FE10BD70B50400322905D0002587
:10520000332904D10125072101E00125062129398F
:10521000CAB2012120004942FFF7CFFD002D04D082
:10522000D32200212000FFF7C8FD70BD0B0010B590
:10523000012A07D0022A0BD1012167324942FFF728
:10524000BCFD10BD11001B32D2B2FFF73BFEF8E7E8
:1052500001214942F7E770B50D000400111E05D188
:105260002B0013222000FFF72DFE70BD022A04D16F
:10527000FFF7AEFD2000FFF7CAFD02212B00182228
:105280004942EFE7110010B5002B07D10F2A05D8CE
:105290005039CAB20121FFF790FD10BD2433DAB2B4
:1052A0000B000121FFF700FEF7E7110010B5002BFE
:1052B00008D10F2A06D84039CAB201214942FFF766
:1052C0007CFD10BD2633DAB20B0001214942FFF705
:1052D000EBFDF6E770B5049DD2B26C002D02E41828
:1052E0002B43059D002D02D00132D2B20134091B9F
:1052F000FFF7DAFD70BD07B5019300920B00342271
:105300000021FFF7E7FF07BD13B5012401930092C9
:105310000B0036226142FFF7DDFF13BD10B504001C
:10532000C06800F038FA2322030001212000FFF7B3
:10533000BBFD10BD0B001033F7B506000D003F2B71
:1053400005D8803D0121EAB2FFF737FDF7BD012105
:105350002222FFF732FD6B465C1D21007F202F00CB
:1053600022000740EBB2013CED1127706F1C012FAA
:10537000F5D840273B40013513D1002B02D1013C29
:105380002070941E3000091BFFF7FDFC80260100F1
:10539000230001AD76421A78AB4208D11B1BC254E0
:1053A000D4E7002BEED00023013C2370E9E7324321
:1053B0000A7001330131EEE770B5040018000B6983
:1053C0000499D5B208430AD10121891A202220006C
:1053D000FFF7B2FD29002000FFF7E8FC70BDD143C4
:1053E0002122F4E710B51C000B69224304D10121EE
:1053F0003232FFF7A1FD10BD012133224942F8E707
:1054000010B504000D290AD10849C06800F0C3F99D
:105410002322030001212000FFF746FD10BD423189
:10542000CAB20121FFF7C9FCF8E7C046883E041064
:1054300070B504000D000F21FFF7E2FF29002000E6
:10544000FFF77AFC5C2220000221FFF7B6FC042162
:1054500020004942FFF764FC70BDF8B504000F005E
:1054600016001D000F21FFF7CBFF2000FFF7CFFC38
:1054700039002000FFF7EDFD31002000FFF75CFC54
:105480002000FFF7B1FC012220002121FFF730FDB1
:1054900020000821FFF7AFFE2A0000212000FFF7BF
:1054A00094FEF8BD70B543790400012B14D000259B
:1054B000C26B436A05649B1AC3632069038DAB42C8
:1054C0000CD86379032B1AD1606AE36AA062236364
:1054D000C01804F0A4FF6063012070BDC26AEB0035
:1054E000D118D35C052B08D18E7820000121FFF75D
:1054F0003EFC0670236C013323640135DDE7042B89
:10550000EAD1626AA16AE36A8A4202D1216B9942B6
:1055100003D00020A2622363DFE7230038331B7827
:10552000002B03D00549064814F03AFBE268C38A11
:105530005268616B006900F081F9CDE724D2031055
:1055400054320410F0B541710100002302611700CC
:10555000012238318360837143618261C362436297
:105560000B703B8C798C06005B1887B0002B00D148
:1055700013000F22F88AB98C10400390BA8B7D8BF0
:105580000492FA8B7820059204228C001440013A90
:105590002A40013B1443DA001B09024001934B08E7
:1055A00014430293AD08029A019B01211343039A0D
:1055B00030001343049A2B431343059A134336D107
:1055C000FFF7D5FB04707379022B1AD9336CF56B96
:1055D00001937E2301226C001C40019BAD09134006
:1055E0001C43019BD34001932B43029301D08023A2
:1055F0001C4301213000FFF7BAFB029B0470002B13
:10560000E7D1736AF068F363B98A00F0ADF82F4D03
:10561000020029003000FBF75BFA00247B8BBA8B79
:105620009B18A3424FDD3B8D00229C4647E0FFF7CD
:105630009EFB80235B421C43039B04709C01402320
:1056400030221C40019B1B0113401C430123059A7F
:10565000134008221C43049BDB0013401C43043A04
:10566000AB0013401C43029B023A5B0013401C43F7
:10567000019B6D08D3400193029B5B080293039B3F
:105680005B080393049B5B080493059B5B080593ED
:1056900089E70120FB6AD1005B18597801420DD0DF
:1056A0005988A1420AD15968F06800F05DF82900D4
:1056B00002003000FBF70CFA0134AFE701329445E9
:1056C000E7DC0521F0E707B0F0BDC0466F4D0010E4
:1056D00010B50400442004F0A2FEC46010BD10B553
:1056E0000400C161880004F07BFE206210BD10B58B
:1056F0000400006A04F0A8FE200004F0A5FE10BD1E
:10570000F8B504000D00884201D10120F8BD144B0A
:10571000984201D10020F9E79942FBD009F072F9D3
:105720000600280009F06EF98642F3D10D4B9E4227
:1057300011D162686B689A42ECD108260027636831
:10574000BB42E2D9A959A059FFF7DAFF0436002875
:10575000E0D00137F3E72900200009F007FCD5E786
:10576000C42B0410F8420410CB00022110B51943D9
:1057700004000122083004F0A5FE4368002B06D186
:105780000122A368DB08013B5B00134343604068D0
:10579000401080B210BD70B505000E000024EB690A
:1057A000A34208D82800310014300CF0EFFEEC6959
:1057B000013C200070BD2A6AA30031009858FFF711
:1057C0009FFF0028F5D10134E9E710B5012204005C
:1057D00015F08FFB0378012B04D12378012B02D91C
:1057E0000423037010BD0223FBE770B505000E0013
:1057F000100019001C0015F06CFB03785A1E012ADA
:1058000005D80022736821002800984770BD032B3B
:1058100002D101227368F6E736684288042B04D16E
:10582000002321002800B047F0E70123F9E710B575
:10583000102004F0F4FD0123837010BD10B5022484
:105840008470013C2340C3704160826010BD817050
:10585000012110B502AB10CB42601B8884600B4065
:10586000C370049B0373059B1A02C368DBB2134326
:10587000C36010BDF8B504006378100022781B02E5
:105880000D00134317D0002700230A0021000BF05E
:1058900049FF0125390023785BB27E1C002B03DB16
:1058A000294225D01D4B19E0A35D9A112A40BA4028
:1058B00037001143F0E7A3786668042B10D0052B5E
:1058C00017D0032B20D10A00A36831000BF02AFF68
:1058D000134B0360E378002B0AD0124B036007E000
:1058E00010201149A46809F080F8C6604560846002
:1058F000F8BD10200D49257BE46809F076F8240AEC
:1059000045608660C460F3E70A00A36831000BF0CD
:1059100009FFE378002BEBD0C4E7C046243704101E
:10592000DC35041008370410C4350410AC350410FD
:1059300070B51D00802314005B001A401C4200D08B
:105940002A00FFF797FF0223E2091A409A40E1B2CA
:10595000AA180AF02DF970BD0F2370B5134004008A
:10596000022B09D00D4B0A0019000D480BF042FA2A
:10597000636A1860002070BD836A002012098342A8
:1059800005D1238C042BF5D106490548EEE7E16AE1
:10599000850069589142EED00130F0E736D203100D
:1059A0000C3204104BD203107FB504000D00100020
:1059B00003A91E0012F080F9002809D12A000B4922
:1059C0000B480BF017FA636A1860002004B070BD32
:1059D000039809F0DFF802000300B243F6D02A0072
:1059E0000449009602480BF005FAECE762D2031076
:1059F0000C3204107AD2031070B5038CC46A032BE6
:105A000003D10023856A9D4205D18B00E250FAF74D
:105A100068FD012070BD9E00A659964201D0013359
:105A2000F1E70020F6E710B5FAF7B6FD10BD10B5A6
:105A300004000184426203290ED1826A0021C06AF7
:105A4000920033F045FE01212000FAF722FD0021EB
:105A50002000FAF771FD10BD04394B425941013164
:105A6000F2E70000F8B51F000F2305000E001B4CE5
:105A70001340022B03D1100913F0F7FB0400237825
:105A8000174A18000023517881421DD161788C4655
:105A900091788C4518D1A1788C46D178614513D185
:105AA00000290ED10E4A9B00D05CB84208D93B00B9
:105AB00032000C490C480BF09DF96B6A186000200D
:105AC000F8BDE1780029EDD001330432152BDAD18D
:105AD0003200064904480BF08DF9EEE7170A04106E
